{
  "_format": "hh-sol-artifact-1",
  "contractName": "PaymentProcessor",
  "sourceName": "contracts/core/PaymentProcessor.sol",
  "abi": [
    {
      "inputs": [
        {
          "internalType": "address",
          "name": "_treasury",
          "type": "address"
        }
      ],
      "stateMutability": "nonpayable",
      "type": "constructor"
    },
    {
      "inputs": [
        {
          "internalType": "address",
          "name": "owner",
          "type": "address"
        }
      ],
      "name": "OwnableInvalidOwner",
      "type": "error"
    },
    {
      "inputs": [
        {
          "internalType": "address",
          "name": "account",
          "type": "address"
        }
      ],
      "name": "OwnableUnauthorizedAccount",
      "type": "error"
    },
    {
      "inputs": [],
      "name": "ReentrancyGuardReentrantCall",
      "type": "error"
    },
    {
      "anonymous": false,
      "inputs": [
        {
          "indexed": true,
          "internalType": "address",
          "name": "previousOwner",
          "type": "address"
        },
        {
          "indexed": true,
          "internalType": "address",
          "name": "newOwner",
          "type": "address"
        }
      ],
      "name": "OwnershipTransferred",
      "type": "event"
    },
    {
      "anonymous": false,
      "inputs": [
        {
          "indexed": true,
          "internalType": "address",
          "name": "token",
          "type": "address"
        },
        {
          "indexed": true,
          "internalType": "address",
          "name": "from",
          "type": "address"
        },
        {
          "indexed": true,
          "internalType": "address",
          "name": "to",
          "type": "address"
        },
        {
          "indexed": false,
          "internalType": "uint256",
          "name": "amount",
          "type": "uint256"
        },
        {
          "indexed": false,
          "internalType": "uint256",
          "name": "protocolFee",
          "type": "uint256"
        },
        {
          "indexed": false,
          "internalType": "uint256",
          "name": "referrerFee",
          "type": "uint256"
        }
      ],
      "name": "PaymentProcessed",
      "type": "event"
    },
    {
      "anonymous": false,
      "inputs": [
        {
          "indexed": true,
          "internalType": "address",
          "name": "token",
          "type": "address"
        },
        {
          "indexed": false,
          "internalType": "bool",
          "name": "supported",
          "type": "bool"
        }
      ],
      "name": "TokenSupported",
      "type": "event"
    },
    {
      "inputs": [],
      "name": "PROTOCOL_FEE_PERCENT",
      "outputs": [
        {
          "internalType": "uint256",
          "name": "",
          "type": "uint256"
        }
      ],
      "stateMutability": "view",
      "type": "function"
    },
    {
      "inputs": [],
      "name": "REFERRER_FEE_PERCENT",
      "outputs": [
        {
          "internalType": "uint256",
          "name": "",
          "type": "uint256"
        }
      ],
      "stateMutability": "view",
      "type": "function"
    },
    {
      "inputs": [
        {
          "internalType": "uint256",
          "name": "amount",
          "type": "uint256"
        },
        {
          "internalType": "address",
          "name": "referrer",
          "type": "address"
        }
      ],
      "name": "calculateFees",
      "outputs": [
        {
          "components": [
            {
              "internalType": "uint256",
              "name": "protocolFee",
              "type": "uint256"
            },
            {
              "internalType": "uint256",
              "name": "referrerFee",
              "type": "uint256"
            },
            {
              "internalType": "address",
              "name": "referrer",
              "type": "address"
            }
          ],
          "internalType": "struct PaymentProcessor.FeeDistribution",
          "name": "",
          "type": "tuple"
        }
      ],
      "stateMutability": "pure",
      "type": "function"
    },
    {
      "inputs": [],
      "name": "escrowManager",
      "outputs": [
        {
          "internalType": "address",
          "name": "",
          "type": "address"
        }
      ],
      "stateMutability": "view",
      "type": "function"
    },
    {
      "inputs": [
        {
          "internalType": "address",
          "name": "token",
          "type": "address"
        },
        {
          "internalType": "address",
          "name": "account",
          "type": "address"
        }
      ],
      "name": "getFees",
      "outputs": [
        {
          "internalType": "uint256",
          "name": "",
          "type": "uint256"
        }
      ],
      "stateMutability": "view",
      "type": "function"
    },
    {
      "inputs": [],
      "name": "owner",
      "outputs": [
        {
          "internalType": "address",
          "name": "",
          "type": "address"
        }
      ],
      "stateMutability": "view",
      "type": "function"
    },
    {
      "inputs": [
        {
          "internalType": "address",
          "name": "token",
          "type": "address"
        },
        {
          "internalType": "address",
          "name": "from",
          "type": "address"
        },
        {
          "internalType": "address",
          "name": "to",
          "type": "address"
        },
        {
          "internalType": "uint256",
          "name": "amount",
          "type": "uint256"
        },
        {
          "internalType": "address",
          "name": "referrer",
          "type": "address"
        }
      ],
      "name": "processPayment",
      "outputs": [
        {
          "components": [
            {
              "internalType": "uint256",
              "name": "protocolFee",
              "type": "uint256"
            },
            {
              "internalType": "uint256",
              "name": "referrerFee",
              "type": "uint256"
            },
            {
              "internalType": "address",
              "name": "referrer",
              "type": "address"
            }
          ],
          "internalType": "struct PaymentProcessor.FeeDistribution",
          "name": "",
          "type": "tuple"
        }
      ],
      "stateMutability": "nonpayable",
      "type": "function"
    },
    {
      "inputs": [
        {
          "internalType": "address",
          "name": "",
          "type": "address"
        }
      ],
      "name": "protocolFees",
      "outputs": [
        {
          "internalType": "uint256",
          "name": "",
          "type": "uint256"
        }
      ],
      "stateMutability": "view",
      "type": "function"
    },
    {
      "inputs": [
        {
          "internalType": "address",
          "name": "",
          "type": "address"
        }
      ],
      "name": "referrerFees",
      "outputs": [
        {
          "internalType": "uint256",
          "name": "",
          "type": "uint256"
        }
      ],
      "stateMutability": "view",
      "type": "function"
    },
    {
      "inputs": [],
      "name": "renounceOwnership",
      "outputs": [],
      "stateMutability": "nonpayable",
      "type": "function"
    },
    {
      "inputs": [
        {
          "internalType": "address",
          "name": "_escrowManager",
          "type": "address"
        }
      ],
      "name": "setEscrowManager",
      "outputs": [],
      "stateMutability": "nonpayable",
      "type": "function"
    },
    {
      "inputs": [
        {
          "internalType": "address",
          "name": "token",
          "type": "address"
        },
        {
          "internalType": "bool",
          "name": "supported",
          "type": "bool"
        }
      ],
      "name": "setSupportedToken",
      "outputs": [],
      "stateMutability": "nonpayable",
      "type": "function"
    },
    {
      "inputs": [
        {
          "internalType": "address",
          "name": "",
          "type": "address"
        }
      ],
      "name": "supportedTokens",
      "outputs": [
        {
          "internalType": "bool",
          "name": "",
          "type": "bool"
        }
      ],
      "stateMutability": "view",
      "type": "function"
    },
    {
      "inputs": [
        {
          "internalType": "address",
          "name": "newOwner",
          "type": "address"
        }
      ],
      "name": "transferOwnership",
      "outputs": [],
      "stateMutability": "nonpayable",
      "type": "function"
    },
    {
      "inputs": [],
      "name": "treasury",
      "outputs": [
        {
          "internalType": "address",
          "name": "",
          "type": "address"
        }
      ],
      "stateMutability": "view",
      "type": "function"
    },
    {
      "inputs": [
        {
          "internalType": "address",
          "name": "token",
          "type": "address"
        }
      ],
      "name": "withdrawProtocolFees",
      "outputs": [],
      "stateMutability": "nonpayable",
      "type": "function"
    },
    {
      "inputs": [
        {
          "internalType": "address",
          "name": "token",
          "type": "address"
        },
        {
          "internalType": "address",
          "name": "referrer",
          "type": "address"
        }
      ],
      "name": "withdrawReferrerFees",
      "outputs": [],
      "stateMutability": "nonpayable",
      "type": "function"
    },
    {
      "stateMutability": "payable",
      "type": "receive"
    }
  ],
  "bytecode": "0x608060405234801561001057600080fd5b5060405161124738038061124783398101604081905261002f91610110565b6001600055338061005a57604051631e4fbdf760e01b81526000600482015260240160405180910390fd5b610063816100be565b50600680546001600160a01b0319166001600160a01b03929092169190911790556000805260046020527f17ef568e3e12ab5b9c7254a8d58478811de00f9e6eb34345acd53bf8fd09d3ec805460ff19166001179055610140565b600180546001600160a01b038381166001600160a01b0319831681179093556040519116919082907f8be0079c531659141344cd1fd0a4f28419497f9722a3daafe3b4186f6b6457e090600090a35050565b60006020828403121561012257600080fd5b81516001600160a01b038116811461013957600080fd5b9392505050565b6110f88061014f6000396000f3fe6080604052600436106101015760003560e01c8063b7c8b78a11610095578063dcf844a711610064578063dcf844a7146102fa578063e798646614610327578063f2fde38b14610347578063f3d428ae14610367578063f641cb3f1461037c57600080fd5b8063b7c8b78a1461026d578063c12255c41461028d578063c23135dd146102ad578063c982bcca146102da57600080fd5b806361d027b3116100d157806361d027b3146101c257806368c4ac26146101fa578063715018a61461023a5780638da5cb5b1461024f57600080fd5b80625769081461010d5780632982de0d1461015d5780632d80caa5146101805780633f992d00146101a257600080fd5b3661010857005b600080fd5b34801561011957600080fd5b5061012d610128366004610f15565b61039c565b604080518251815260208084015190820152918101516001600160a01b0316908201526060015b60405180910390f35b34801561016957600080fd5b5061017260c881565b604051908152602001610154565b34801561018c57600080fd5b506101a061019b366004610f73565b6108c9565b005b3480156101ae57600080fd5b5061012d6101bd366004610f95565b610a69565b3480156101ce57600080fd5b506006546101e2906001600160a01b031681565b6040516001600160a01b039091168152602001610154565b34801561020657600080fd5b5061022a610215366004610f73565b60046020526000908152604090205460ff1681565b6040519015158152602001610154565b34801561024657600080fd5b506101a0610b0a565b34801561025b57600080fd5b506001546001600160a01b03166101e2565b34801561027957600080fd5b506101a0610288366004610f73565b610b1e565b34801561029957600080fd5b506005546101e2906001600160a01b031681565b3480156102b957600080fd5b506101726102c8366004610f73565b60036020526000908152604090205481565b3480156102e657600080fd5b506101726102f5366004610fc1565b610b48565b34801561030657600080fd5b50610172610315366004610f73565b60026020526000908152604090205481565b34801561033357600080fd5b506101a0610342366004610ff9565b610bbd565b34801561035357600080fd5b506101a0610362366004610f73565b610c24565b34801561037357600080fd5b50610172603281565b34801561038857600080fd5b506101a0610397366004610fc1565b610c62565b6103c96040518060600160405280600081526020016000815260200160006001600160a01b031681525090565b6103d1610e50565b6005546001600160a01b031633146104265760405162461bcd60e51b815260206004820152601360248201527227b7363c9032b9b1b937bb9036b0b730b3b2b960691b60448201526064015b60405180910390fd5b6001600160a01b03861660009081526004602052604090205460ff166104845760405162461bcd60e51b8152602060048201526013602482015272151bdad95b881b9bdd081cdd5c1c1bdc9d1959606a1b604482015260640161041d565b600083116104d45760405162461bcd60e51b815260206004820152601d60248201527f416d6f756e74206d7573742062652067726561746572207468616e2030000000604482015260640161041d565b60006104e08484610a69565b90506001600160a01b03871661069057834710156105405760405162461bcd60e51b815260206004820152601860248201527f496e73756666696369656e74204554482062616c616e63650000000000000000604482015260640161041d565b602081015181516000916001600160a01b0388169161055f9088611046565b6105699190611046565b604051600081818185875af1925050503d80600081146105a5576040519150601f19603f3d011682016040523d82523d6000602084013e6105aa565b606091505b50509050806105f15760405162461bcd60e51b8152602060048201526013602482015272115512081d1c985b9cd9995c8819985a5b1959606a1b604482015260640161041d565b81511561062a5781516006546001600160a01b031660009081526002602052604081208054909190610624908490611059565b90915550505b6000826020015111801561064657506001600160a01b03841615155b1561068a57816020015160036000866001600160a01b03166001600160a01b0316815260200190815260200160002060008282546106849190611059565b90915550505b50610842565b6040516323b872dd60e01b81526001600160a01b038781166004830152306024830152604482018690528816906323b872dd906064016020604051808303816000875af11580156106e5573d6000803e3d6000fd5b505050506040513d601f19601f82011682018060405250810190610709919061106c565b50866001600160a01b031663a9059cbb86836020015184600001518861072f9190611046565b6107399190611046565b6040516001600160e01b031960e085901b1681526001600160a01b03909216600483015260248201526044016020604051808303816000875af1158015610784573d6000803e3d6000fd5b505050506040513d601f19601f820116820180604052508101906107a8919061106c565b508051156107e25780516006546001600160a01b0316600090815260026020526040812080549091906107dc908490611059565b90915550505b600081602001511180156107fe57506001600160a01b03831615155b1561084257806020015160036000856001600160a01b03166001600160a01b03168152602001908152602001600020600082825461083c9190611059565b90915550505b846001600160a01b0316866001600160a01b0316886001600160a01b03167f8ed23274f0a1b47a8b3f1ac0ec6832270bb082fe285efea6ab3cf58a8f58c8ea87856000015186602001516040516108ac939291909283526020830191909152604082015260600190565b60405180910390a490506108c06001600055565b95945050505050565b6108d1610e7a565b6006546001600160a01b03166000908152600260205260409020548061092f5760405162461bcd60e51b81526020600482015260136024820152724e6f206665657320746f20776974686472617760681b604482015260640161041d565b6006546001600160a01b0390811660009081526002602052604081205582166109f2576006546040516000916001600160a01b03169083908381818185875af1925050503d806000811461099f576040519150601f19603f3d011682016040523d82523d6000602084013e6109a4565b606091505b50509050806109ed5760405162461bcd60e51b8152602060048201526015602482015274115512081dda5d1a191c985dd85b0819985a5b1959605a1b604482015260640161041d565b505050565b60065460405163a9059cbb60e01b81526001600160a01b039182166004820152602481018390529083169063a9059cbb906044016020604051808303816000875af1158015610a45573d6000803e3d6000fd5b505050506040513d601f19601f820116820180604052508101906109ed919061106c565b610a966040518060600160405280600081526020016000815260200160006001600160a01b031681525090565b6000612710610aa660c886611089565b610ab091906110a0565b905060006001600160a01b03841615610ade57612710610ad1603287611089565b610adb91906110a0565b90505b6040805160608101825292835260208301919091526001600160a01b0384169082015290505b92915050565b610b12610e7a565b610b1c6000610ea7565b565b610b26610e7a565b600580546001600160a01b0319166001600160a01b0392909216919091179055565b60006001600160a01b038316610b8e576001600160a01b038216600090815260036020908152604080832054600290925290912054610b879190611059565b9050610b04565b6001600160a01b038216600090815260036020908152604080832054600290925290912054610b879190611059565b610bc5610e7a565b6001600160a01b038216600081815260046020908152604091829020805460ff191685151590811790915591519182527fd86c88b4a367d9b81a6e00c9d3f7d01657bffef358fa8968c91c045ae99f0d52910160405180910390a25050565b610c2c610e7a565b6001600160a01b038116610c5657604051631e4fbdf760e01b81526000600482015260240161041d565b610c5f81610ea7565b50565b6001600160a01b03811660009081526003602052604090205480610cbe5760405162461bcd60e51b81526020600482015260136024820152724e6f206665657320746f20776974686472617760681b604482015260640161041d565b336001600160a01b0383161480610cdf57506001546001600160a01b031633145b610d1c5760405162461bcd60e51b815260206004820152600e60248201526d139bdd08185d5d1a1bdc9a5e995960921b604482015260640161041d565b6001600160a01b038083166000908152600360205260408120558316610ddd576000826001600160a01b03168260405160006040518083038185875af1925050503d8060008114610d89576040519150601f19603f3d011682016040523d82523d6000602084013e610d8e565b606091505b5050905080610dd75760405162461bcd60e51b8152602060048201526015602482015274115512081dda5d1a191c985dd85b0819985a5b1959605a1b604482015260640161041d565b50505050565b60405163a9059cbb60e01b81526001600160a01b0383811660048301526024820183905284169063a9059cbb906044016020604051808303816000875af1158015610e2c573d6000803e3d6000fd5b505050506040513d601f19601f82011682018060405250810190610dd7919061106c565b600260005403610e7357604051633ee5aeb560e01b815260040160405180910390fd5b6002600055565b6001546001600160a01b03163314610b1c5760405163118cdaa760e01b815233600482015260240161041d565b600180546001600160a01b038381166001600160a01b0319831681179093556040519116919082907f8be0079c531659141344cd1fd0a4f28419497f9722a3daafe3b4186f6b6457e090600090a35050565b80356001600160a01b0381168114610f1057600080fd5b919050565b600080600080600060a08688031215610f2d57600080fd5b610f3686610ef9565b9450610f4460208701610ef9565b9350610f5260408701610ef9565b925060608601359150610f6760808701610ef9565b90509295509295909350565b600060208284031215610f8557600080fd5b610f8e82610ef9565b9392505050565b60008060408385031215610fa857600080fd5b82359150610fb860208401610ef9565b90509250929050565b60008060408385031215610fd457600080fd5b610fdd83610ef9565b9150610fb860208401610ef9565b8015158114610c5f57600080fd5b6000806040838503121561100c57600080fd5b61101583610ef9565b9150602083013561102581610feb565b809150509250929050565b634e487b7160e01b600052601160045260246000fd5b81810381811115610b0457610b04611030565b80820180821115610b0457610b04611030565b60006020828403121561107e57600080fd5b8151610f8e81610feb565b8082028115828204841417610b0457610b04611030565b6000826110bd57634e487b7160e01b600052601260045260246000fd5b50049056fea26469706673582212208bf6333df091442d22a1fd01aaeaf9c1dc64d9c6fd06872cf2bd0a018191d09d64736f6c63430008140033",
  "linkReferences": {},
  "deployedLinkReferences": {}
}