{
  "_format": "hh-sol-artifact-1",
  "contractName": "EscrowManager",
  "sourceName": "contracts/core/EscrowManager.sol",
  "abi": [
    {
      "inputs": [],
      "stateMutability": "nonpayable",
      "type": "constructor"
    },
    {
      "inputs": [],
      "name": "EnforcedPause",
      "type": "error"
    },
    {
      "inputs": [],
      "name": "ExpectedPause",
      "type": "error"
    },
    {
      "inputs": [
        {
          "internalType": "address",
          "name": "owner",
          "type": "address"
        }
      ],
      "name": "OwnableInvalidOwner",
      "type": "error"
    },
    {
      "inputs": [
        {
          "internalType": "address",
          "name": "account",
          "type": "address"
        }
      ],
      "name": "OwnableUnauthorizedAccount",
      "type": "error"
    },
    {
      "inputs": [],
      "name": "ReentrancyGuardReentrantCall",
      "type": "error"
    },
    {
      "anonymous": false,
      "inputs": [
        {
          "indexed": true,
          "internalType": "uint256",
          "name": "escrowId",
          "type": "uint256"
        },
        {
          "indexed": true,
          "internalType": "address",
          "name": "arbitrator",
          "type": "address"
        },
        {
          "indexed": false,
          "internalType": "bool",
          "name": "buyerWins",
          "type": "bool"
        }
      ],
      "name": "DisputeResolved",
      "type": "event"
    },
    {
      "anonymous": false,
      "inputs": [
        {
          "indexed": true,
          "internalType": "uint256",
          "name": "escrowId",
          "type": "uint256"
        },
        {
          "indexed": false,
          "internalType": "uint256",
          "name": "amountReleased",
          "type": "uint256"
        }
      ],
      "name": "EscrowCompleted",
      "type": "event"
    },
    {
      "anonymous": false,
      "inputs": [
        {
          "indexed": true,
          "internalType": "uint256",
          "name": "escrowId",
          "type": "uint256"
        },
        {
          "indexed": true,
          "internalType": "address",
          "name": "buyer",
          "type": "address"
        },
        {
          "indexed": true,
          "internalType": "address",
          "name": "seller",
          "type": "address"
        },
        {
          "indexed": false,
          "internalType": "uint256",
          "name": "amount",
          "type": "uint256"
        }
      ],
      "name": "EscrowCreated",
      "type": "event"
    },
    {
      "anonymous": false,
      "inputs": [
        {
          "indexed": true,
          "internalType": "uint256",
          "name": "escrowId",
          "type": "uint256"
        },
        {
          "indexed": true,
          "internalType": "address",
          "name": "initiator",
          "type": "address"
        },
        {
          "indexed": false,
          "internalType": "string",
          "name": "reason",
          "type": "string"
        }
      ],
      "name": "EscrowDisputed",
      "type": "event"
    },
    {
      "anonymous": false,
      "inputs": [
        {
          "indexed": true,
          "internalType": "uint256",
          "name": "escrowId",
          "type": "uint256"
        },
        {
          "indexed": false,
          "internalType": "uint256",
          "name": "amount",
          "type": "uint256"
        }
      ],
      "name": "EscrowFunded",
      "type": "event"
    },
    {
      "anonymous": false,
      "inputs": [
        {
          "indexed": true,
          "internalType": "address",
          "name": "previousOwner",
          "type": "address"
        },
        {
          "indexed": true,
          "internalType": "address",
          "name": "newOwner",
          "type": "address"
        }
      ],
      "name": "OwnershipTransferred",
      "type": "event"
    },
    {
      "anonymous": false,
      "inputs": [
        {
          "indexed": false,
          "internalType": "address",
          "name": "account",
          "type": "address"
        }
      ],
      "name": "Paused",
      "type": "event"
    },
    {
      "anonymous": false,
      "inputs": [
        {
          "indexed": true,
          "internalType": "address",
          "name": "user",
          "type": "address"
        },
        {
          "indexed": false,
          "internalType": "uint256",
          "name": "newScore",
          "type": "uint256"
        },
        {
          "indexed": false,
          "internalType": "uint256",
          "name": "totalTransactions",
          "type": "uint256"
        }
      ],
      "name": "ReputationUpdated",
      "type": "event"
    },
    {
      "anonymous": false,
      "inputs": [
        {
          "indexed": false,
          "internalType": "address",
          "name": "account",
          "type": "address"
        }
      ],
      "name": "Unpaused",
      "type": "event"
    },
    {
      "inputs": [],
      "name": "DISPUTE_TIMEOUT",
      "outputs": [
        {
          "internalType": "uint256",
          "name": "",
          "type": "uint256"
        }
      ],
      "stateMutability": "view",
      "type": "function"
    },
    {
      "inputs": [],
      "name": "ESCROW_TIMEOUT",
      "outputs": [
        {
          "internalType": "uint256",
          "name": "",
          "type": "uint256"
        }
      ],
      "stateMutability": "view",
      "type": "function"
    },
    {
      "inputs": [],
      "name": "PLATFORM_FEE_PERCENT",
      "outputs": [
        {
          "internalType": "uint256",
          "name": "",
          "type": "uint256"
        }
      ],
      "stateMutability": "view",
      "type": "function"
    },
    {
      "inputs": [
        {
          "internalType": "uint256",
          "name": "escrowId",
          "type": "uint256"
        }
      ],
      "name": "cancelEscrow",
      "outputs": [],
      "stateMutability": "nonpayable",
      "type": "function"
    },
    {
      "inputs": [
        {
          "internalType": "address",
          "name": "seller",
          "type": "address"
        },
        {
          "internalType": "string",
          "name": "description",
          "type": "string"
        },
        {
          "internalType": "bytes32",
          "name": "metadataHash",
          "type": "bytes32"
        },
        {
          "components": [
            {
              "internalType": "uint256",
              "name": "amount",
              "type": "uint256"
            },
            {
              "internalType": "string",
              "name": "description",
              "type": "string"
            },
            {
              "internalType": "bool",
              "name": "completed",
              "type": "bool"
            },
            {
              "internalType": "uint256",
              "name": "completedAt",
              "type": "uint256"
            }
          ],
          "internalType": "struct ILinkaProtocol.Milestone[]",
          "name": "_milestones",
          "type": "tuple[]"
        }
      ],
      "name": "createEscrow",
      "outputs": [
        {
          "internalType": "uint256",
          "name": "",
          "type": "uint256"
        }
      ],
      "stateMutability": "payable",
      "type": "function"
    },
    {
      "inputs": [],
      "name": "disputeResolution",
      "outputs": [
        {
          "internalType": "address",
          "name": "",
          "type": "address"
        }
      ],
      "stateMutability": "view",
      "type": "function"
    },
    {
      "inputs": [
        {
          "internalType": "uint256",
          "name": "",
          "type": "uint256"
        }
      ],
      "name": "disputes",
      "outputs": [
        {
          "internalType": "uint256",
          "name": "escrowId",
          "type": "uint256"
        },
        {
          "internalType": "address",
          "name": "initiator",
          "type": "address"
        },
        {
          "internalType": "string",
          "name": "reason",
          "type": "string"
        },
        {
          "internalType": "uint256",
          "name": "createdAt",
          "type": "uint256"
        },
        {
          "internalType": "enum ILinkaProtocol.DisputeStatus",
          "name": "status",
          "type": "uint8"
        },
        {
          "internalType": "address",
          "name": "arbitrator",
          "type": "address"
        }
      ],
      "stateMutability": "view",
      "type": "function"
    },
    {
      "inputs": [
        {
          "internalType": "uint256",
          "name": "",
          "type": "uint256"
        }
      ],
      "name": "escrows",
      "outputs": [
        {
          "internalType": "uint256",
          "name": "id",
          "type": "uint256"
        },
        {
          "internalType": "address",
          "name": "buyer",
          "type": "address"
        },
        {
          "internalType": "address",
          "name": "seller",
          "type": "address"
        },
        {
          "internalType": "uint256",
          "name": "amount",
          "type": "uint256"
        },
        {
          "internalType": "uint256",
          "name": "platformFee",
          "type": "uint256"
        },
        {
          "internalType": "uint256",
          "name": "createdAt",
          "type": "uint256"
        },
        {
          "internalType": "uint256",
          "name": "expiresAt",
          "type": "uint256"
        },
        {
          "internalType": "enum ILinkaProtocol.EscrowStatus",
          "name": "status",
          "type": "uint8"
        },
        {
          "internalType": "string",
          "name": "description",
          "type": "string"
        },
        {
          "internalType": "bytes32",
          "name": "metadataHash",
          "type": "bytes32"
        }
      ],
      "stateMutability": "view",
      "type": "function"
    },
    {
      "inputs": [
        {
          "internalType": "uint256",
          "name": "escrowId",
          "type": "uint256"
        }
      ],
      "name": "expireEscrow",
      "outputs": [],
      "stateMutability": "nonpayable",
      "type": "function"
    },
    {
      "inputs": [
        {
          "internalType": "uint256",
          "name": "escrowId",
          "type": "uint256"
        },
        {
          "internalType": "string",
          "name": "reason",
          "type": "string"
        }
      ],
      "name": "fileDispute",
      "outputs": [],
      "stateMutability": "nonpayable",
      "type": "function"
    },
    {
      "inputs": [
        {
          "internalType": "uint256",
          "name": "escrowId",
          "type": "uint256"
        }
      ],
      "name": "fundEscrow",
      "outputs": [],
      "stateMutability": "payable",
      "type": "function"
    },
    {
      "inputs": [
        {
          "internalType": "uint256",
          "name": "escrowId",
          "type": "uint256"
        }
      ],
      "name": "getDispute",
      "outputs": [
        {
          "components": [
            {
              "internalType": "uint256",
              "name": "escrowId",
              "type": "uint256"
            },
            {
              "internalType": "address",
              "name": "initiator",
              "type": "address"
            },
            {
              "internalType": "string",
              "name": "reason",
              "type": "string"
            },
            {
              "internalType": "uint256",
              "name": "createdAt",
              "type": "uint256"
            },
            {
              "internalType": "enum ILinkaProtocol.DisputeStatus",
              "name": "status",
              "type": "uint8"
            },
            {
              "internalType": "address",
              "name": "arbitrator",
              "type": "address"
            }
          ],
          "internalType": "struct ILinkaProtocol.Dispute",
          "name": "",
          "type": "tuple"
        }
      ],
      "stateMutability": "view",
      "type": "function"
    },
    {
      "inputs": [
        {
          "internalType": "uint256",
          "name": "escrowId",
          "type": "uint256"
        }
      ],
      "name": "getEscrow",
      "outputs": [
        {
          "components": [
            {
              "internalType": "uint256",
              "name": "id",
              "type": "uint256"
            },
            {
              "internalType": "address",
              "name": "buyer",
              "type": "address"
            },
            {
              "internalType": "address",
              "name": "seller",
              "type": "address"
            },
            {
              "internalType": "uint256",
              "name": "amount",
              "type": "uint256"
            },
            {
              "internalType": "uint256",
              "name": "platformFee",
              "type": "uint256"
            },
            {
              "internalType": "uint256",
              "name": "createdAt",
              "type": "uint256"
            },
            {
              "internalType": "uint256",
              "name": "expiresAt",
              "type": "uint256"
            },
            {
              "internalType": "enum ILinkaProtocol.EscrowStatus",
              "name": "status",
              "type": "uint8"
            },
            {
              "internalType": "string",
              "name": "description",
              "type": "string"
            },
            {
              "internalType": "bytes32",
              "name": "metadataHash",
              "type": "bytes32"
            }
          ],
          "internalType": "struct ILinkaProtocol.Escrow",
          "name": "",
          "type": "tuple"
        }
      ],
      "stateMutability": "view",
      "type": "function"
    },
    {
      "inputs": [
        {
          "internalType": "uint256",
          "name": "escrowId",
          "type": "uint256"
        }
      ],
      "name": "getMilestones",
      "outputs": [
        {
          "components": [
            {
              "internalType": "uint256",
              "name": "amount",
              "type": "uint256"
            },
            {
              "internalType": "string",
              "name": "description",
              "type": "string"
            },
            {
              "internalType": "bool",
              "name": "completed",
              "type": "bool"
            },
            {
              "internalType": "uint256",
              "name": "completedAt",
              "type": "uint256"
            }
          ],
          "internalType": "struct ILinkaProtocol.Milestone[]",
          "name": "",
          "type": "tuple[]"
        }
      ],
      "stateMutability": "view",
      "type": "function"
    },
    {
      "inputs": [
        {
          "internalType": "uint256",
          "name": "",
          "type": "uint256"
        },
        {
          "internalType": "uint256",
          "name": "",
          "type": "uint256"
        }
      ],
      "name": "milestones",
      "outputs": [
        {
          "internalType": "uint256",
          "name": "amount",
          "type": "uint256"
        },
        {
          "internalType": "string",
          "name": "description",
          "type": "string"
        },
        {
          "internalType": "bool",
          "name": "completed",
          "type": "bool"
        },
        {
          "internalType": "uint256",
          "name": "completedAt",
          "type": "uint256"
        }
      ],
      "stateMutability": "view",
      "type": "function"
    },
    {
      "inputs": [],
      "name": "nextEscrowId",
      "outputs": [
        {
          "internalType": "uint256",
          "name": "",
          "type": "uint256"
        }
      ],
      "stateMutability": "view",
      "type": "function"
    },
    {
      "inputs": [],
      "name": "owner",
      "outputs": [
        {
          "internalType": "address",
          "name": "",
          "type": "address"
        }
      ],
      "stateMutability": "view",
      "type": "function"
    },
    {
      "inputs": [],
      "name": "pause",
      "outputs": [],
      "stateMutability": "nonpayable",
      "type": "function"
    },
    {
      "inputs": [],
      "name": "paused",
      "outputs": [
        {
          "internalType": "bool",
          "name": "",
          "type": "bool"
        }
      ],
      "stateMutability": "view",
      "type": "function"
    },
    {
      "inputs": [],
      "name": "paymentProcessor",
      "outputs": [
        {
          "internalType": "address",
          "name": "",
          "type": "address"
        }
      ],
      "stateMutability": "view",
      "type": "function"
    },
    {
      "inputs": [
        {
          "internalType": "uint256",
          "name": "escrowId",
          "type": "uint256"
        },
        {
          "internalType": "uint256",
          "name": "milestoneIndex",
          "type": "uint256"
        }
      ],
      "name": "releasePayment",
      "outputs": [],
      "stateMutability": "nonpayable",
      "type": "function"
    },
    {
      "inputs": [],
      "name": "renounceOwnership",
      "outputs": [],
      "stateMutability": "nonpayable",
      "type": "function"
    },
    {
      "inputs": [],
      "name": "reputationRegistry",
      "outputs": [
        {
          "internalType": "address",
          "name": "",
          "type": "address"
        }
      ],
      "stateMutability": "view",
      "type": "function"
    },
    {
      "inputs": [
        {
          "internalType": "uint256",
          "name": "escrowId",
          "type": "uint256"
        },
        {
          "internalType": "bool",
          "name": "buyerWins",
          "type": "bool"
        }
      ],
      "name": "resolveDispute",
      "outputs": [],
      "stateMutability": "nonpayable",
      "type": "function"
    },
    {
      "inputs": [
        {
          "internalType": "address",
          "name": "_paymentProcessor",
          "type": "address"
        },
        {
          "internalType": "address",
          "name": "_reputationRegistry",
          "type": "address"
        },
        {
          "internalType": "address",
          "name": "_disputeResolution",
          "type": "address"
        }
      ],
      "name": "setContracts",
      "outputs": [],
      "stateMutability": "nonpayable",
      "type": "function"
    },
    {
      "inputs": [],
      "name": "totalFees",
      "outputs": [
        {
          "internalType": "uint256",
          "name": "",
          "type": "uint256"
        }
      ],
      "stateMutability": "view",
      "type": "function"
    },
    {
      "inputs": [],
      "name": "totalVolume",
      "outputs": [
        {
          "internalType": "uint256",
          "name": "",
          "type": "uint256"
        }
      ],
      "stateMutability": "view",
      "type": "function"
    },
    {
      "inputs": [
        {
          "internalType": "address",
          "name": "newOwner",
          "type": "address"
        }
      ],
      "name": "transferOwnership",
      "outputs": [],
      "stateMutability": "nonpayable",
      "type": "function"
    },
    {
      "inputs": [],
      "name": "unpause",
      "outputs": [],
      "stateMutability": "nonpayable",
      "type": "function"
    },
    {
      "inputs": [
        {
          "internalType": "address",
          "name": "",
          "type": "address"
        }
      ],
      "name": "userEscrowCount",
      "outputs": [
        {
          "internalType": "uint256",
          "name": "",
          "type": "uint256"
        }
      ],
      "stateMutability": "view",
      "type": "function"
    },
    {
      "inputs": [],
      "name": "withdrawFees",
      "outputs": [],
      "stateMutability": "nonpayable",
      "type": "function"
    }
  ],
  "bytecode": "0x608060405260016002553480156200001657600080fd5b50600160005533806200004357604051631e4fbdf760e01b81526000600482015260240160405180910390fd5b6200004e8162000055565b50620000a7565b600180546001600160a01b038381166001600160a01b0319831681179093556040519116919082907f8be0079c531659141344cd1fd0a4f28419497f9722a3daafe3b4186f6b6457e090600090a35050565b61307680620000b76000396000f3fe6080604052600436106101d85760003560e01c8063715018a611610102578063bc3a868f11610095578063e018243611610064578063e018243614610550578063e3a96cbd14610570578063f1c6bdf81461059d578063f2fde38b146105bd57600080fd5b8063bc3a868f146104dd578063be9157cf146104fd578063c8db44e31461051d578063c9c31af51461053d57600080fd5b806389cb29dd116100d157806389cb29dd146104555780638da5cb5b1461046b57806397e99a801461049d578063b3066d49146104bd57600080fd5b8063715018a6146103de5780637d19e596146103f35780638243af1d146104205780638456cb591461044057600080fd5b80633f4ba83a1161017a578063560d52d411610149578063560d52d414610357578063564a565d1461036c5780635c975abb1461039e5780635f81a57c146103c857600080fd5b80633f4ba83a146102e957806342c549c0146102fe578063476343ee1461032b578063486265c61461034057600080fd5b80631c376c63116101b65780631c376c631461026d5780632eb2cb461461029d57806330815eee146102b057806334b25ee2146102c757600080fd5b8063012f52ee146101dd57806313114a9d1461021c57806319ffa56314610240575b600080fd5b3480156101e957600080fd5b506101fd6101f836600461272b565b6105dd565b6040516102139a999897969594939291906127b4565b60405180910390f35b34801561022857600080fd5b5061023260045481565b604051908152602001610213565b34801561024c57600080fd5b5061023261025b366004612844565b60086020526000908152604090205481565b34801561027957600080fd5b5061028d610288366004612866565b6106c9565b6040516102139493929190612888565b6102326102ab3660046129a4565b6107a2565b3480156102bc57600080fd5b5061023262278d0081565b3480156102d357600080fd5b506102e76102e2366004612b04565b610c16565b005b3480156102f557600080fd5b506102e7610fd5565b34801561030a57600080fd5b5061031e61031936600461272b565b610fe7565b6040516102139190612b30565b34801561033757600080fd5b506102e7611114565b34801561034c57600080fd5b5061023262093a8081565b34801561036357600080fd5b5061023260fa81565b34801561037857600080fd5b5061038c61038736600461272b565b61120c565b60405161021396959493929190612bcd565b3480156103aa57600080fd5b50600154600160a01b900460ff166040519015158152602001610213565b3480156103d457600080fd5b5061023260035481565b3480156103ea57600080fd5b506102e76112e0565b3480156103ff57600080fd5b5061041361040e36600461272b565b6112f2565b6040516102139190612c1e565b34801561042c57600080fd5b506102e761043b366004612cc7565b61143e565b34801561044c57600080fd5b506102e76117d3565b34801561046157600080fd5b5061023260025481565b34801561047757600080fd5b506001546001600160a01b03165b6040516001600160a01b039091168152602001610213565b3480156104a957600080fd5b506102e76104b8366004612866565b6117e3565b3480156104c957600080fd5b506102e76104d8366004612d0e565b611d2a565b3480156104e957600080fd5b506102e76104f836600461272b565b611d71565b34801561050957600080fd5b50600b54610485906001600160a01b031681565b34801561052957600080fd5b50600a54610485906001600160a01b031681565b6102e761054b36600461272b565b611edb565b34801561055c57600080fd5b506102e761056b36600461272b565b61206b565b34801561057c57600080fd5b5061059061058b36600461272b565b612361565b6040516102139190612d51565b3480156105a957600080fd5b50600954610485906001600160a01b031681565b3480156105c957600080fd5b506102e76105d8366004612844565b612491565b600560208190526000918252604090912080546001820154600283015460038401546004850154958501546006860154600787015460088801805497996001600160a01b0397881699979096169794969394929360ff9092169261064090612dc3565b80601f016020809104026020016040519081016040528092919081815260200182805461066c90612dc3565b80156106b95780601f1061068e576101008083540402835291602001916106b9565b820191906000526020600020905b81548152906001019060200180831161069c57829003601f168201915b505050505090806009015490508a565b600660205281600052604060002081815481106106e557600080fd5b90600052602060002090600402016000915091505080600001549080600101805461070f90612dc3565b80601f016020809104026020016040519081016040528092919081815260200182805461073b90612dc3565b80156107885780601f1061075d57610100808354040283529160200191610788565b820191906000526020600020905b81548152906001019060200180831161076b57829003601f168201915b505050506002830154600390930154919260ff1691905084565b60006107ac6124cf565b6001600160a01b0385166107f85760405162461bcd60e51b815260206004820152600e60248201526d24b73b30b634b21039b2b63632b960911b60448201526064015b60405180910390fd5b336001600160a01b038616036108505760405162461bcd60e51b815260206004820152601760248201527f43616e6e6f7420657363726f7720776974682073656c6600000000000000000060448201526064016107ef565b600034116108a05760405162461bcd60e51b815260206004820152601d60248201527f416d6f756e74206d7573742062652067726561746572207468616e203000000060448201526064016107ef565b60006127106108b060fa34612e13565b6108ba9190612e30565b905060006108c88234612e52565b6002805491925060009190826108dd83612e65565b919050559050604051806101400160405280828152602001336001600160a01b03168152602001896001600160a01b0316815260200183815260200184815260200142815260200162278d00426109349190612e7e565b81526020016000815260208082018a9052604091820189905260008481526005808352908390208451815591840151600180840180546001600160a01b039384166001600160a01b03199182161790915594860151600285018054919093169516949094179055606084015160038301556080840151600483015560a08401518282015560c0840151600683015560e084015160078301805493949193909260ff19909116919084908111156109ec576109ec612744565b02179055506101008201516008820190610a069082612edc565b506101209190910151600990910155845115610b50576000805b8651811015610aeb5760008381526006602052604090208751889083908110610a4b57610a4b612f9c565b6020908102919091018101518254600181810185556000948552938390208251600490920201908155918101519092820190610a879082612edc565b50604082015160028201805460ff19169115159190911790556060909101516003909101558651879082908110610ac057610ac0612f9c565b60200260200101516000015182610ad79190612e7e565b915080610ae381612e65565b915050610a20565b50828114610b4e5760405162461bcd60e51b815260206004820152602a60248201527f4d696c6573746f6e6520616d6f756e7473206d75737420657175616c206573636044820152691c9bddc8185b5bdd5b9d60b21b60648201526084016107ef565b505b336000908152600860205260408120805491610b6b83612e65565b90915550506001600160a01b0388166000908152600860205260408120805491610b9483612e65565b91905055503460036000828254610bab9190612e7e565b925050819055508260046000828254610bc49190612e7e565b90915550506040518281526001600160a01b03891690339083907f9405ad0a6208539879349284d71265479b1623846f70303da1f9890d6e8c10a79060200160405180910390a4979650505050505050565b81600081118015610c28575060025481105b610c445760405162461bcd60e51b81526004016107ef90612fb2565b600b546001600160a01b03163314610c9e5760405162461bcd60e51b815260206004820181905260248201527f4f6e6c792064697370757465207265736f6c7574696f6e20636f6e747261637460448201526064016107ef565b600083815260056020908152604080832060079092529091206003600783015460ff166005811115610cd257610cd2612744565b14610d135760405162461bcd60e51b81526020600482015260116024820152704e6f20616374697665206469737075746560781b60448201526064016107ef565b6000600482015460ff166003811115610d2e57610d2e612744565b14610d7b5760405162461bcd60e51b815260206004820152601860248201527f4469737075746520616c7265616479207265736f6c766564000000000000000060448201526064016107ef565b60048101805461010033026001600160a81b0319909116176002179055600084610db25760028301546001600160a01b0316610dc1565b60018301546001600160a01b03165b9050600085610ddd5760018401546001600160a01b0316610dec565b60028401546001600160a01b03165b90506000826001600160a01b0316856003015460405160006040518083038185875af1925050503d8060008114610e3f576040519150601f19603f3d011682016040523d82523d6000602084013e610e44565b606091505b5050905080610e875760405162461bcd60e51b815260206004820152600f60248201526e151c985b9cd9995c8819985a5b1959608a1b60448201526064016107ef565b60078501805460ff191660021790556040518715158152339089907f8fdd4548a8481406b6e29c0d6f25e27cd72502f79f4adf409468502e7920dabc9060200160405180910390a3600a546001600160a01b031615610fcb57600a5460038601546040516001620323d760e61b031981526001600160a01b03868116600483015260016024830152604482019290925291169063ff370a4090606401600060405180830381600087803b158015610f3d57600080fd5b505af1158015610f51573d6000803e3d6000fd5b5050600a5460038801546040516001620323d760e61b031981526001600160a01b0387811660048301526000602483015260448201929092529116925063ff370a409150606401600060405180830381600087803b158015610fb257600080fd5b505af1158015610fc6573d6000803e3d6000fd5b505050505b5050505050505050565b610fdd6124fa565b610fe5612527565b565b606060066000838152602001908152602001600020805480602002602001604051908101604052809291908181526020016000905b8282101561110957838290600052602060002090600402016040518060800160405290816000820154815260200160018201805461105990612dc3565b80601f016020809104026020016040519081016040528092919081815260200182805461108590612dc3565b80156110d25780601f106110a7576101008083540402835291602001916110d2565b820191906000526020600020905b8154815290600101906020018083116110b557829003601f168201915b5050509183525050600282015460ff161515602080830191909152600390920154604090910152908252600192909201910161101c565b505050509050919050565b61111c6124fa565b47806111605760405162461bcd60e51b81526020600482015260136024820152724e6f206665657320746f20776974686472617760681b60448201526064016107ef565b60006111746001546001600160a01b031690565b6001600160a01b03168260405160006040518083038185875af1925050503d80600081146111be576040519150601f19603f3d011682016040523d82523d6000602084013e6111c3565b606091505b50509050806112085760405162461bcd60e51b815260206004820152601160248201527015da5d1a191c985dd85b0819985a5b1959607a1b60448201526064016107ef565b5050565b60076020526000908152604090208054600182015460028301805492936001600160a01b039092169261123e90612dc3565b80601f016020809104026020016040519081016040528092919081815260200182805461126a90612dc3565b80156112b75780601f1061128c576101008083540402835291602001916112b7565b820191906000526020600020905b81548152906001019060200180831161129a57829003601f168201915b50505050600383015460049093015491929160ff8116915061010090046001600160a01b031686565b6112e86124fa565b610fe5600061257c565b6112fa612665565b6000828152600560208181526040928390208351610140810185528154815260018201546001600160a01b039081169382019390935260028201549092169382019390935260038301546060820152600483015460808201528282015460a0820152600683015460c0820152600783015490929160e084019160ff169081111561138657611386612744565b600581111561139757611397612744565b81526020016008820180546113ab90612dc3565b80601f01602080910402602001604051908101604052809291908181526020018280546113d790612dc3565b80156114245780601f106113f957610100808354040283529160200191611424565b820191906000526020600020905b81548152906001019060200180831161140757829003601f168201915b505050505081526020016009820154815250509050919050565b81600081118015611450575060025481105b61146c5760405162461bcd60e51b81526004016107ef90612fb2565b60008381526005602081815260408084208151610140810183528154815260018201546001600160a01b039081169482019490945260028201549093169183019190915260038101546060830152600481015460808301528083015460a0830152600681015460c0830152600781015487949360e084019160ff16908111156114f7576114f7612744565b600581111561150857611508612744565b815260200160088201805461151c90612dc3565b80601f016020809104026020016040519081016040528092919081815260200182805461154890612dc3565b80156115955780601f1061156a57610100808354040283529160200191611595565b820191906000526020600020905b81548152906001019060200180831161157857829003601f168201915b50505050508152602001600982015481525050905080602001516001600160a01b0316336001600160a01b031614806115e3575080604001516001600160a01b0316336001600160a01b0316145b6115ff5760405162461bcd60e51b81526004016107ef90612fda565b60008581526005602052604090206001600782015460ff16600581111561162857611628612744565b146116455760405162461bcd60e51b81526004016107ef90613002565b6000868152600760205260409020600301541561169c5760405162461bcd60e51b8152602060048201526015602482015274111a5cdc1d5d1948185b1c9958591e48199a5b1959605a1b60448201526064016107ef565b6040805160c0810182528781523360208201529081018690524260608201526080810160008152600060209182018190528881526007825260409081902083518155918301516001830180546001600160a01b0319166001600160a01b0390921691909117905582015160028201906117159082612edc565b506060820151816003015560808201518160040160006101000a81548160ff0219169083600381111561174a5761174a612744565b021790555060a0919091015160049091018054610100600160a81b0319166101006001600160a01b039093169290920291909117905560078101805460ff19166003179055604051339087907fc523357a17c19a0da11b08e9f4d7e4fbed304cbe1be1d3583e4d5a677d75d709906117c390899061302d565b60405180910390a3505050505050565b6117db6124fa565b610fe56125ce565b816000811180156117f5575060025481105b6118115760405162461bcd60e51b81526004016107ef90612fb2565b60008381526005602081815260408084208151610140810183528154815260018201546001600160a01b039081169482019490945260028201549093169183019190915260038101546060830152600481015460808301528083015460a0830152600681015460c0830152600781015487949360e084019160ff169081111561189c5761189c612744565b60058111156118ad576118ad612744565b81526020016008820180546118c190612dc3565b80601f01602080910402602001604051908101604052809291908181526020018280546118ed90612dc3565b801561193a5780601f1061190f5761010080835404028352916020019161193a565b820191906000526020600020905b81548152906001019060200180831161191d57829003601f168201915b50505050508152602001600982015481525050905080602001516001600160a01b0316336001600160a01b03161480611988575080604001516001600160a01b0316336001600160a01b0316145b6119a45760405162461bcd60e51b81526004016107ef90612fda565b6119ac612611565b60008581526005602052604090206001600782015460ff1660058111156119d5576119d5612744565b146119f25760405162461bcd60e51b81526004016107ef90613002565b8060060154421115611a375760405162461bcd60e51b815260206004820152600e60248201526d115cd8dc9bddc8195e1c1a5c995960921b60448201526064016107ef565b60008681526006602052604081205415611b41576000878152600660205260409020548610611a9c5760405162461bcd60e51b8152602060048201526011602482015270496e76616c6964206d696c6573746f6e6560781b60448201526064016107ef565b6000878152600660205260408120805488908110611abc57611abc612f9c565b60009182526020909120600490910201600281015490915060ff1615611b245760405162461bcd60e51b815260206004820152601b60248201527f4d696c6573746f6e6520616c726561647920636f6d706c65746564000000000060448201526064016107ef565b60028101805460ff19166001179055426003820155549050611bbf565b60018201546001600160a01b03163314611ba95760405162461bcd60e51b815260206004820152602360248201527f4f6e6c792062757965722063616e2072656c656173652066756c6c207061796d604482015262195b9d60ea1b60648201526084016107ef565b50600381015460078201805460ff191660021790555b60028201546040516000916001600160a01b03169083908381818185875af1925050503d8060008114611c0e576040519150601f19603f3d011682016040523d82523d6000602084013e611c13565b606091505b5050905080611c565760405162461bcd60e51b815260206004820152600f60248201526e151c985b9cd9995c8819985a5b1959608a1b60448201526064016107ef565b877ff487d4e13e32569d69ec2608b5b1530450d715b84e0c81d0077b5b7e766db1d183604051611c8891815260200190565b60405180910390a2600a546001600160a01b031615611d1657600a5460028401546040516001620323d760e61b031981526001600160a01b039182166004820152600160248201526044810185905291169063ff370a4090606401600060405180830381600087803b158015611cfd57600080fd5b505af1158015611d11573d6000803e3d6000fd5b505050505b505050611d236001600055565b5050505050565b611d326124fa565b600980546001600160a01b039485166001600160a01b031991821617909155600a805493851693821693909317909255600b8054919093169116179055565b80600081118015611d83575060025481105b611d9f5760405162461bcd60e51b81526004016107ef90612fb2565b60008281526005602052604090206001600782015460ff166005811115611dc857611dc8612744565b14611de55760405162461bcd60e51b81526004016107ef90613002565b80600601544211611e2d5760405162461bcd60e51b8152602060048201526012602482015271115cd8dc9bddc81b9bdd08195e1c1a5c995960721b60448201526064016107ef565b60078101805460ff19166005179055600181015460038201546040516000926001600160a01b031691908381818185875af1925050503d8060008114611e8f576040519150601f19603f3d011682016040523d82523d6000602084013e611e94565b606091505b5050905080611ed55760405162461bcd60e51b815260206004820152600d60248201526c1499599d5b990819985a5b1959609a1b60448201526064016107ef565b50505050565b80600081118015611eed575060025481105b611f095760405162461bcd60e51b81526004016107ef90612fb2565b611f116124cf565b600082815260056020526040812090600782015460ff166005811115611f3957611f39612744565b14611f7b5760405162461bcd60e51b8152602060048201526012602482015271457363726f77206e6f742070656e64696e6760701b60448201526064016107ef565b60018101546001600160a01b03163314611fcd5760405162461bcd60e51b815260206004820152601360248201527213db9b1e48189d5e595c8818d85b88199d5b99606a1b60448201526064016107ef565b80600401548160030154611fe19190612e7e565b34146120225760405162461bcd60e51b815260206004820152601060248201526f125b98dbdc9c9958dd08185b5bdd5b9d60821b60448201526064016107ef565b60078101805460ff1916600117905560405134815283907f911052e1be46242b46bf3c2762227ff37c000e5fe38727638096f3a17fbfe1709060200160405180910390a2505050565b8060008111801561207d575060025481105b6120995760405162461bcd60e51b81526004016107ef90612fb2565b60008281526005602081815260408084208151610140810183528154815260018201546001600160a01b039081169482019490945260028201549093169183019190915260038101546060830152600481015460808301528083015460a0830152600681015460c0830152600781015486949360e084019160ff169081111561212457612124612744565b600581111561213557612135612744565b815260200160088201805461214990612dc3565b80601f016020809104026020016040519081016040528092919081815260200182805461217590612dc3565b80156121c25780601f10612197576101008083540402835291602001916121c2565b820191906000526020600020905b8154815290600101906020018083116121a557829003601f168201915b50505050508152602001600982015481525050905080602001516001600160a01b0316336001600160a01b03161480612210575080604001516001600160a01b0316336001600160a01b0316145b61222c5760405162461bcd60e51b81526004016107ef90612fda565b600084815260056020526040812090600782015460ff16600581111561225457612254612744565b146122a15760405162461bcd60e51b815260206004820152601b60248201527f43616e6e6f742063616e63656c2066756e64656420657363726f77000000000060448201526064016107ef565b60078101805460ff1916600490811790915560018201549082015460038301546000926001600160a01b0316916122d791612e7e565b604051600081818185875af1925050503d8060008114612313576040519150601f19603f3d011682016040523d82523d6000602084013e612318565b606091505b50509050806123595760405162461bcd60e51b815260206004820152600d60248201526c1499599d5b990819985a5b1959609a1b60448201526064016107ef565b505050505050565b6123696126db565b600082815260076020908152604091829020825160c0810184528154815260018201546001600160a01b03169281019290925260028101805492939192918401916123b390612dc3565b80601f01602080910402602001604051908101604052809291908181526020018280546123df90612dc3565b801561242c5780601f106124015761010080835404028352916020019161242c565b820191906000526020600020905b81548152906001019060200180831161240f57829003601f168201915b50505091835250506003828101546020830152600483015460409092019160ff169081111561245d5761245d612744565b600381111561246e5761246e612744565b81526004919091015461010090046001600160a01b031660209091015292915050565b6124996124fa565b6001600160a01b0381166124c357604051631e4fbdf760e01b8152600060048201526024016107ef565b6124cc8161257c565b50565b600154600160a01b900460ff1615610fe55760405163d93c066560e01b815260040160405180910390fd5b6001546001600160a01b03163314610fe55760405163118cdaa760e01b81523360048201526024016107ef565b61252f61263b565b6001805460ff60a01b191690557f5db9ee0a495bf2e6ff9c91a7834c1ba4fdd244a5e8aa4e537bd38aeae4b073aa335b6040516001600160a01b03909116815260200160405180910390a1565b600180546001600160a01b038381166001600160a01b0319831681179093556040519116919082907f8be0079c531659141344cd1fd0a4f28419497f9722a3daafe3b4186f6b6457e090600090a35050565b6125d66124cf565b6001805460ff60a01b1916600160a01b1790557f62e78cea01bee320cd4e420270b5ea74000d11b0c9f74754ebdbfc544b05a25861255f3390565b60026000540361263457604051633ee5aeb560e01b815260040160405180910390fd5b6002600055565b600154600160a01b900460ff16610fe557604051638dfc202b60e01b815260040160405180910390fd5b6040518061014001604052806000815260200160006001600160a01b0316815260200160006001600160a01b0316815260200160008152602001600081526020016000815260200160008152602001600060058111156126c7576126c7612744565b815260606020820152600060409091015290565b6040518060c001604052806000815260200160006001600160a01b0316815260200160608152602001600081526020016000600381111561271e5761271e612744565b8152600060209091015290565b60006020828403121561273d57600080fd5b5035919050565b634e487b7160e01b600052602160045260246000fd5b6006811061276a5761276a612744565b9052565b6000815180845260005b8181101561279457602081850181015186830182015201612778565b506000602082860101526020601f19601f83011685010191505092915050565b8a81526001600160a01b038a8116602083015289166040820152606081018890526080810187905260a0810186905260c0810185905260006101406127fc60e084018761275a565b8061010084015261280f8184018661276e565b915050826101208301529b9a5050505050505050505050565b80356001600160a01b038116811461283f57600080fd5b919050565b60006020828403121561285657600080fd5b61285f82612828565b9392505050565b6000806040838503121561287957600080fd5b50508035926020909101359150565b8481526080602082015260006128a1608083018661276e565b9315156040830152506060015292915050565b634e487b7160e01b600052604160045260246000fd5b6040516080810167ffffffffffffffff811182821017156128ed576128ed6128b4565b60405290565b604051601f8201601f1916810167ffffffffffffffff8111828210171561291c5761291c6128b4565b604052919050565b600082601f83011261293557600080fd5b813567ffffffffffffffff81111561294f5761294f6128b4565b612962601f8201601f19166020016128f3565b81815284602083860101111561297757600080fd5b816020850160208301376000918101602001919091529392505050565b8035801515811461283f57600080fd5b600080600080608085870312156129ba57600080fd5b6129c385612828565b9350602085013567ffffffffffffffff808211156129e057600080fd5b6129ec88838901612924565b9450604087013593506060870135915080821115612a0957600080fd5b818701915087601f830112612a1d57600080fd5b813581811115612a2f57612a2f6128b4565b612a3e60208260051b016128f3565b8082825260208201915060208360051b86010192508a831115612a6057600080fd5b602085015b83811015612af4578481351115612a7b57600080fd5b803586016080818e03601f19011215612a9357600080fd5b612a9b6128ca565b60208201358152604082013587811115612ab457600080fd5b612ac38f602083860101612924565b602083015250612ad560608301612994565b6040820152608091909101356060820152835260209283019201612a65565b50979a9699509497505050505050565b60008060408385031215612b1757600080fd5b82359150612b2760208401612994565b90509250929050565b60006020808301818452808551808352604092508286019150828160051b87010184880160005b83811015612baf57603f19898403018552815160808151855288820151818a870152612b858287018261276e565b838a01511515878b0152606093840151939096019290925250509386019390860190600101612b57565b509098975050505050505050565b6004811061276a5761276a612744565b868152600060018060a01b03808816602084015260c06040840152612bf560c084018861276e565b9150856060840152612c0a6080840186612bbd565b80841660a084015250979650505050505050565b602081528151602082015260006020830151612c4560408401826001600160a01b03169052565b5060408301516001600160a01b03811660608401525060608301516080830152608083015160a083015260a083015160c083015260c083015160e083015260e0830151610100612c978185018361275a565b808501519150506101406101208181860152612cb761016086018461276e565b9501519301929092525090919050565b60008060408385031215612cda57600080fd5b82359150602083013567ffffffffffffffff811115612cf857600080fd5b612d0485828601612924565b9150509250929050565b600080600060608486031215612d2357600080fd5b612d2c84612828565b9250612d3a60208501612828565b9150612d4860408501612828565b90509250925092565b60208082528251828201528201516001600160a01b0390811660408084019190915283015160c06060840152600091612d8d60e085018361276e565b9150606085015160808501526080850151612dab60a0860182612bbd565b508060a08601511660c0850152508091505092915050565b600181811c90821680612dd757607f821691505b602082108103612df757634e487b7160e01b600052602260045260246000fd5b50919050565b634e487b7160e01b600052601160045260246000fd5b8082028115828204841417612e2a57612e2a612dfd565b92915050565b600082612e4d57634e487b7160e01b600052601260045260246000fd5b500490565b81810381811115612e2a57612e2a612dfd565b600060018201612e7757612e77612dfd565b5060010190565b80820180821115612e2a57612e2a612dfd565b601f821115612ed757600081815260208120601f850160051c81016020861015612eb85750805b601f850160051c820191505b8181101561235957828155600101612ec4565b505050565b815167ffffffffffffffff811115612ef657612ef66128b4565b612f0a81612f048454612dc3565b84612e91565b602080601f831160018114612f3f5760008415612f275750858301515b600019600386901b1c1916600185901b178555612359565b600085815260208120601f198616915b82811015612f6e57888601518255948401946001909101908401612f4f565b5085821015612f8c5787850151600019600388901b60f8161c191681555b5050505050600190811b01905550565b634e487b7160e01b600052603260045260246000fd5b6020808252600e908201526d496e76616c696420657363726f7760901b604082015260600190565b6020808252600e908201526d139bdd08185d5d1a1bdc9a5e995960921b604082015260600190565b602080825260119082015270115cd8dc9bddc81b9bdd08199d5b991959607a1b604082015260600190565b60208152600061285f602083018461276e56fea2646970667358221220e8cf605b8754391c24c49894f92dbdf7aa5fac3cc87ae5c8c6164724a7b70a5164736f6c63430008140033",
  "linkReferences": {},
  "deployedLinkReferences": {}
}